{
  "contractName": "Date",
  "abi": [
    {
      "inputs": [],
      "stateMutability": "nonpayable",
      "type": "constructor"
    },
    {
      "anonymous": false,
      "inputs": [
        {
          "indexed": true,
          "internalType": "address",
          "name": "owner",
          "type": "address"
        },
        {
          "indexed": true,
          "internalType": "address",
          "name": "approved",
          "type": "address"
        },
        {
          "indexed": true,
          "internalType": "uint256",
          "name": "tokenId",
          "type": "uint256"
        }
      ],
      "name": "Approval",
      "type": "event"
    },
    {
      "anonymous": false,
      "inputs": [
        {
          "indexed": true,
          "internalType": "address",
          "name": "owner",
          "type": "address"
        },
        {
          "indexed": true,
          "internalType": "address",
          "name": "operator",
          "type": "address"
        },
        {
          "indexed": false,
          "internalType": "bool",
          "name": "approved",
          "type": "bool"
        }
      ],
      "name": "ApprovalForAll",
      "type": "event"
    },
    {
      "anonymous": false,
      "inputs": [
        {
          "indexed": true,
          "internalType": "address",
          "name": "previousOwner",
          "type": "address"
        },
        {
          "indexed": true,
          "internalType": "address",
          "name": "newOwner",
          "type": "address"
        }
      ],
      "name": "OwnershipTransferred",
      "type": "event"
    },
    {
      "anonymous": false,
      "inputs": [
        {
          "indexed": true,
          "internalType": "address",
          "name": "from",
          "type": "address"
        },
        {
          "indexed": true,
          "internalType": "address",
          "name": "to",
          "type": "address"
        },
        {
          "indexed": true,
          "internalType": "uint256",
          "name": "tokenId",
          "type": "uint256"
        }
      ],
      "name": "Transfer",
      "type": "event"
    },
    {
      "inputs": [
        {
          "internalType": "address",
          "name": "to",
          "type": "address"
        },
        {
          "internalType": "uint256",
          "name": "tokenId",
          "type": "uint256"
        }
      ],
      "name": "approve",
      "outputs": [],
      "stateMutability": "nonpayable",
      "type": "function"
    },
    {
      "inputs": [
        {
          "internalType": "address",
          "name": "owner",
          "type": "address"
        }
      ],
      "name": "balanceOf",
      "outputs": [
        {
          "internalType": "uint256",
          "name": "",
          "type": "uint256"
        }
      ],
      "stateMutability": "view",
      "type": "function"
    },
    {
      "inputs": [
        {
          "internalType": "uint256",
          "name": "tokenId",
          "type": "uint256"
        }
      ],
      "name": "getApproved",
      "outputs": [
        {
          "internalType": "address",
          "name": "",
          "type": "address"
        }
      ],
      "stateMutability": "view",
      "type": "function"
    },
    {
      "inputs": [
        {
          "internalType": "address",
          "name": "owner",
          "type": "address"
        },
        {
          "internalType": "address",
          "name": "operator",
          "type": "address"
        }
      ],
      "name": "isApprovedForAll",
      "outputs": [
        {
          "internalType": "bool",
          "name": "",
          "type": "bool"
        }
      ],
      "stateMutability": "view",
      "type": "function"
    },
    {
      "inputs": [],
      "name": "name",
      "outputs": [
        {
          "internalType": "string",
          "name": "",
          "type": "string"
        }
      ],
      "stateMutability": "view",
      "type": "function"
    },
    {
      "inputs": [],
      "name": "owner",
      "outputs": [
        {
          "internalType": "address",
          "name": "",
          "type": "address"
        }
      ],
      "stateMutability": "view",
      "type": "function"
    },
    {
      "inputs": [],
      "name": "renounceOwnership",
      "outputs": [],
      "stateMutability": "nonpayable",
      "type": "function"
    },
    {
      "inputs": [
        {
          "internalType": "address",
          "name": "from",
          "type": "address"
        },
        {
          "internalType": "address",
          "name": "to",
          "type": "address"
        },
        {
          "internalType": "uint256",
          "name": "tokenId",
          "type": "uint256"
        }
      ],
      "name": "safeTransferFrom",
      "outputs": [],
      "stateMutability": "nonpayable",
      "type": "function"
    },
    {
      "inputs": [
        {
          "internalType": "address",
          "name": "from",
          "type": "address"
        },
        {
          "internalType": "address",
          "name": "to",
          "type": "address"
        },
        {
          "internalType": "uint256",
          "name": "tokenId",
          "type": "uint256"
        },
        {
          "internalType": "bytes",
          "name": "_data",
          "type": "bytes"
        }
      ],
      "name": "safeTransferFrom",
      "outputs": [],
      "stateMutability": "nonpayable",
      "type": "function"
    },
    {
      "inputs": [
        {
          "internalType": "address",
          "name": "operator",
          "type": "address"
        },
        {
          "internalType": "bool",
          "name": "approved",
          "type": "bool"
        }
      ],
      "name": "setApprovalForAll",
      "outputs": [],
      "stateMutability": "nonpayable",
      "type": "function"
    },
    {
      "inputs": [
        {
          "internalType": "bytes4",
          "name": "interfaceId",
          "type": "bytes4"
        }
      ],
      "name": "supportsInterface",
      "outputs": [
        {
          "internalType": "bool",
          "name": "",
          "type": "bool"
        }
      ],
      "stateMutability": "view",
      "type": "function"
    },
    {
      "inputs": [],
      "name": "symbol",
      "outputs": [
        {
          "internalType": "string",
          "name": "",
          "type": "string"
        }
      ],
      "stateMutability": "view",
      "type": "function"
    },
    {
      "inputs": [
        {
          "internalType": "uint256",
          "name": "tokenId",
          "type": "uint256"
        }
      ],
      "name": "tokenURI",
      "outputs": [
        {
          "internalType": "string",
          "name": "",
          "type": "string"
        }
      ],
      "stateMutability": "view",
      "type": "function"
    },
    {
      "inputs": [
        {
          "internalType": "address",
          "name": "from",
          "type": "address"
        },
        {
          "internalType": "address",
          "name": "to",
          "type": "address"
        },
        {
          "internalType": "uint256",
          "name": "tokenId",
          "type": "uint256"
        }
      ],
      "name": "transferFrom",
      "outputs": [],
      "stateMutability": "nonpayable",
      "type": "function"
    },
    {
      "inputs": [
        {
          "internalType": "address",
          "name": "newOwner",
          "type": "address"
        }
      ],
      "name": "transferOwnership",
      "outputs": [],
      "stateMutability": "nonpayable",
      "type": "function"
    },
    {
      "inputs": [
        {
          "internalType": "string",
          "name": "baseURI",
          "type": "string"
        }
      ],
      "name": "setBaseURI",
      "outputs": [],
      "stateMutability": "nonpayable",
      "type": "function"
    },
    {
      "inputs": [
        {
          "internalType": "uint16",
          "name": "year",
          "type": "uint16"
        },
        {
          "internalType": "uint8",
          "name": "month",
          "type": "uint8"
        },
        {
          "internalType": "uint8",
          "name": "day",
          "type": "uint8"
        },
        {
          "internalType": "string",
          "name": "title",
          "type": "string"
        }
      ],
      "name": "claim",
      "outputs": [],
      "stateMutability": "payable",
      "type": "function"
    },
    {
      "inputs": [
        {
          "internalType": "uint16",
          "name": "year",
          "type": "uint16"
        },
        {
          "internalType": "uint8",
          "name": "month",
          "type": "uint8"
        },
        {
          "internalType": "uint8",
          "name": "day",
          "type": "uint8"
        }
      ],
      "name": "ownerOf",
      "outputs": [
        {
          "internalType": "address",
          "name": "",
          "type": "address"
        }
      ],
      "stateMutability": "view",
      "type": "function"
    },
    {
      "inputs": [
        {
          "internalType": "uint256",
          "name": "tokenId",
          "type": "uint256"
        }
      ],
      "name": "ownerOf",
      "outputs": [
        {
          "internalType": "address",
          "name": "",
          "type": "address"
        }
      ],
      "stateMutability": "view",
      "type": "function"
    },
    {
      "inputs": [
        {
          "internalType": "uint256",
          "name": "tokenId",
          "type": "uint256"
        }
      ],
      "name": "get",
      "outputs": [
        {
          "internalType": "uint16",
          "name": "year",
          "type": "uint16"
        },
        {
          "internalType": "uint8",
          "name": "month",
          "type": "uint8"
        },
        {
          "internalType": "uint8",
          "name": "day",
          "type": "uint8"
        },
        {
          "internalType": "uint8",
          "name": "color",
          "type": "uint8"
        },
        {
          "internalType": "string",
          "name": "title",
          "type": "string"
        }
      ],
      "stateMutability": "view",
      "type": "function"
    },
    {
      "inputs": [
        {
          "internalType": "uint16",
          "name": "year",
          "type": "uint16"
        },
        {
          "internalType": "uint8",
          "name": "month",
          "type": "uint8"
        },
        {
          "internalType": "uint8",
          "name": "day",
          "type": "uint8"
        }
      ],
      "name": "titleOf",
      "outputs": [
        {
          "internalType": "string",
          "name": "",
          "type": "string"
        }
      ],
      "stateMutability": "view",
      "type": "function"
    },
    {
      "inputs": [
        {
          "internalType": "uint256",
          "name": "tokenId",
          "type": "uint256"
        }
      ],
      "name": "titleOf",
      "outputs": [
        {
          "internalType": "string",
          "name": "",
          "type": "string"
        }
      ],
      "stateMutability": "view",
      "type": "function"
    },
    {
      "inputs": [
        {
          "internalType": "uint16",
          "name": "year",
          "type": "uint16"
        },
        {
          "internalType": "uint8",
          "name": "month",
          "type": "uint8"
        },
        {
          "internalType": "uint8",
          "name": "day",
          "type": "uint8"
        },
        {
          "internalType": "string",
          "name": "title",
          "type": "string"
        }
      ],
      "name": "changeTitleOf",
      "outputs": [],
      "stateMutability": "nonpayable",
      "type": "function"
    },
    {
      "inputs": [
        {
          "internalType": "uint256",
          "name": "tokenId",
          "type": "uint256"
        },
        {
          "internalType": "string",
          "name": "title",
          "type": "string"
        }
      ],
      "name": "changeTitleOf",
      "outputs": [],
      "stateMutability": "nonpayable",
      "type": "function"
    },
    {
      "inputs": [
        {
          "internalType": "uint16",
          "name": "year",
          "type": "uint16"
        }
      ],
      "name": "isLeapYear",
      "outputs": [
        {
          "internalType": "bool",
          "name": "",
          "type": "bool"
        }
      ],
      "stateMutability": "pure",
      "type": "function"
    },
    {
      "inputs": [
        {
          "internalType": "uint8",
          "name": "month",
          "type": "uint8"
        },
        {
          "internalType": "uint16",
          "name": "year",
          "type": "uint16"
        }
      ],
      "name": "numDaysInMonth",
      "outputs": [
        {
          "internalType": "uint8",
          "name": "",
          "type": "uint8"
        }
      ],
      "stateMutability": "pure",
      "type": "function"
    },
    {
      "inputs": [
        {
          "internalType": "uint256",
          "name": "timestamp",
          "type": "uint256"
        }
      ],
      "name": "timestampToDate",
      "outputs": [
        {
          "internalType": "uint16",
          "name": "year",
          "type": "uint16"
        },
        {
          "internalType": "uint8",
          "name": "month",
          "type": "uint8"
        },
        {
          "internalType": "uint8",
          "name": "day",
          "type": "uint8"
        }
      ],
      "stateMutability": "pure",
      "type": "function"
    }
  ],
  "bytecode": "0x60806040523480156200001157600080fd5b506040518060400160405280600481526020017f44617465000000000000000000000000000000000000000000000000000000008152506040518060400160405280600481526020017f4441544500000000000000000000000000000000000000000000000000000000815250600062000090620003e260201b60201c565b600080546001600160a01b0319166001600160a01b0383169081178255604051929350917f8be0079c531659141344cd1fd0a4f28419497f9722a3daafe3b4186f6b6457e0908290a3508151620000ef90600190602085019062000e7c565b5080516200010590600290602084019062000e7c565b505060408051808201909152601d81527f68747470733a2f2f646174652e6b69652e636f6465732f746f6b656e2f0000006020820152620001479150620003e6565b62000194600180600160046040518060400160405280600681526020017f4f524947494e00000000000000000000000000000000000000000000000000008152506200046e60201b60201c565b60008080620001a3426200054a565b925092509250620001f483838360046040518060400160405280601081526020017f4461746520546f6b656e205374617274000000000000000000000000000000008152506200046e60201b60201c565b620002436107df6007601e60066040518060400160405280600b81526020017f4554482047454e455349530000000000000000000000000000000000000000008152506200046e60201b60201c565b620002706105ac6004600f600560405180606001604052806026815260200162003d5f602691396200046e565b6200029d610645600b6005600160405180606001604052806028815260200162003d37602891396200046e565b620002ec61061c6004601760026040518060400160405280601381526020017f546f2062652c206f72206e6f7420746f206265000000000000000000000000008152506200046e60201b60201c565b6200033b6107b16007601460036040518060400160405280601681526020017f4f6e6520736d616c6c207374657020666f72206d616e000000000000000000008152506200046e60201b60201c565b6200038a6107c26006600c60006040518060400160405280600381526020017f43424400000000000000000000000000000000000000000000000000000000008152506200046e60201b60201c565b620003d96107b36006601c60076040518060400160405280600f81526020017f456c6f6e277320426972746864617900000000000000000000000000000000008152506200046e60201b60201c565b5050506200128c565b3390565b6000546001600160a01b0316331462000460576040517f08c379a000000000000000000000000000000000000000000000000000000000815260206004820181905260248201527f4f776e61626c653a2063616c6c6572206973206e6f7420746865206f776e657260448201526064015b60405180910390fd5b6200046b81620003e6565b50565b60006200047d8686866200075f565b6040805160a08101825261ffff808a16825260ff808a1660208085019182528a83168587019081528a841660608701908152608087018b815260008a815260078552989098208751815495519351925187166401000000000260ff60201b199388166301000000029390931664ffff0000001994909716620100000262ffffff1990961697169690961793909317169290921717825592518051949550919390926200053192600185019291019062000e7c565b506200054291503390508262000801565b505050505050565b60008080806200055e620151808662001053565b6200056d90620afa6c62000fe8565b9050600062023ab1600083121562000594576200058e62023ab08462001139565b62000596565b825b620005a2919062001003565b90506000620005b58262023ab16200106a565b620005c1908462001139565b9050600061016d620005d762023ab08462001053565b620005e5618eac8562001053565b620005f36105b48662001053565b620005ff90866200119a565b6200060b919062000fe8565b6200061791906200119a565b62000623919062001053565b905060006200063460648362001053565b6200064160048462001053565b6200064f8461016d62001117565b6200065b919062000fe8565b6200066791906200119a565b6200067390846200119a565b9050600060996200068683600562001117565b6200069390600262000fe8565b6200069f919062001053565b90506005620006b082609962001117565b620006bd90600262000fe8565b620006c9919062001053565b620006d590836200119a565b620006e290600162000fe8565b9650600a81106200070057620006fa6009826200119a565b6200070d565b6200070d81600362000fe8565b975060028860ff1611156200072457600062000727565b60015b60ff16620007388661019062001117565b62000744908562000fe8565b62000750919062000fe8565b98505050505050509193909250565b60008160ff166001111580156200078757506200077d838562000827565b60ff168260ff1611155b6200079157600080fd5b60018260ff1660018560ff16620007a991906200119a565b620007b690601f62001117565b620007c7600161ffff89166200119a565b620007d59061017462001117565b620007e1919062000fe8565b620007ed919062000fe8565b620007f991906200119a565b949350505050565b62000823828260405180602001604052806000815250620009c560201b60201c565b5050565b60008260ff16600111158015620008425750600c8360ff1611155b620008aa576040517f08c379a000000000000000000000000000000000000000000000000000000000815260206004820152601e60248201527f6d6f6e7468206d757374206265206265747765656e203120616e642031320000604482015260640162000457565b8161ffff16600111156200091b576040517f08c379a000000000000000000000000000000000000000000000000000000000815260206004820152601e60248201527f79656172206d75737420626520626967676572206f7220657175616c20310000604482015260640162000457565b8260ff16600114806200093157508260ff166003145b806200094057508260ff166005145b806200094f57508260ff166007145b806200095e57508260ff166008145b806200096d57508260ff16600a145b806200097c57508260ff16600c145b156200098b5750601f620009bf565b8260ff1660021415620009bb57620009a38262000a62565b620009b057601c620009b3565b601d5b9050620009bf565b50601e5b92915050565b620009d1838362000b23565b620009e0600084848462000c9f565b62000a5d576040517f08c379a0000000000000000000000000000000000000000000000000000000008152602060048201526032602482015260008051602062003d1783398151915260448201527f63656976657220696d706c656d656e7465720000000000000000000000000000606482015260840162000457565b505050565b60008161ffff166001111562000ad5576040517f08c379a000000000000000000000000000000000000000000000000000000000815260206004820152601e60248201527f79656172206d75737420626520626967676572206f7220657175616c20310000604482015260640162000457565b62000ae26004836200120a565b61ffff1615801562000b02575062000afc6064836200120a565b61ffff16155b8015620009bf575062000b18610190836200120a565b61ffff161592915050565b6001600160a01b03821662000b95576040517f08c379a000000000000000000000000000000000000000000000000000000000815260206004820181905260248201527f4552433732313a206d696e7420746f20746865207a65726f2061646472657373604482015260640162000457565b6000818152600360205260409020546001600160a01b03161562000c16576040517f08c379a000000000000000000000000000000000000000000000000000000000815260206004820152601c60248201527f4552433732313a20746f6b656e20616c7265616479206d696e74656400000000604482015260640162000457565b6001600160a01b038216600090815260046020526040812080546001929062000c4190849062000fe8565b909155505060008181526003602052604080822080546001600160a01b0319166001600160a01b03861690811790915590518392907fddf252ad1be2c89b69c2b068fc378daa952ba7f163c4a11628f55a4df523b3ef908290a45050565b600062000cc0846001600160a01b031662000e7660201b620017ed1760201c565b1562000e6b576040517f150b7a020000000000000000000000000000000000000000000000000000000081526001600160a01b0385169063150b7a029062000d1390339089908890889060040162000f6d565b602060405180830381600087803b15801562000d2e57600080fd5b505af192505050801562000d61575060408051601f3d908101601f1916820190925262000d5e9181019062000f22565b60015b62000e1f573d80801562000d92576040519150601f19603f3d011682016040523d82523d6000602084013e62000d97565b606091505b50805162000e17576040517f08c379a0000000000000000000000000000000000000000000000000000000008152602060048201526032602482015260008051602062003d1783398151915260448201527f63656976657220696d706c656d656e7465720000000000000000000000000000606482015260840162000457565b805181602001fd5b7fffffffff00000000000000000000000000000000000000000000000000000000167f150b7a0200000000000000000000000000000000000000000000000000000000149050620007f9565b506001949350505050565b3b151590565b82805462000e8a90620011b4565b90600052602060002090601f01602090048101928262000eae576000855562000ef9565b82601f1062000ec957805160ff191683800117855562000ef9565b8280016001018555821562000ef9579182015b8281111562000ef957825182559160200191906001019062000edc565b5062000f0792915062000f0b565b5090565b5b8082111562000f07576000815560010162000f0c565b60006020828403121562000f3557600080fd5b81517fffffffff000000000000000000000000000000000000000000000000000000008116811462000f6657600080fd5b9392505050565b600060018060a01b038087168352602081871681850152856040850152608060608501528451915081608085015260005b8281101562000fbc5785810182015185820160a00152810162000f9e565b8281111562000fcf57600060a084870101525b5050601f01601f19169190910160a00195945050505050565b6000821982111562000ffe5762000ffe6200122e565b500190565b6000826200101557620010156200125d565b7f80000000000000000000000000000000000000000000000000000000000000008214600019841416156200104e576200104e6200122e565b500590565b6000826200106557620010656200125d565b500490565b60006001600160ff1b03818413828413808216868404861116156200109357620010936200122e565b7f80000000000000000000000000000000000000000000000000000000000000006000871286820588128184161615620010d157620010d16200122e565b60008712925087820587128484161615620010f057620010f06200122e565b878505871281841616156200110957620011096200122e565b505050929093029392505050565b60008160001904831182151516156200113457620011346200122e565b500290565b6000808312837f8000000000000000000000000000000000000000000000000000000000000000018312811516156200117657620011766200122e565b6001600160ff1b03840183138116156200119457620011946200122e565b50500390565b600082821015620011af57620011af6200122e565b500390565b600181811c90821680620011c957607f821691505b6020821081141562001204577f4e487b7100000000000000000000000000000000000000000000000000000000600052602260045260246000fd5b50919050565b600061ffff808416806200122257620012226200125d565b92169190910692915050565b7f4e487b7100000000000000000000000000000000000000000000000000000000600052601160045260246000fd5b7f4e487b7100000000000000000000000000000000000000000000000000000000600052601260045260246000fd5b612a7b806200129c6000396000f3fe60806040526004361061019c5760003560e01c8063715018a6116100ec578063b3a083fa1161008a578063daf7c16611610064578063daf7c166146104be578063de5101af146104de578063e985e9c514610522578063f2fde38b1461056b57600080fd5b8063b3a083fa1461045e578063b88d4fde1461047e578063c87b56dd1461049e57600080fd5b806395d89b41116100c657806395d89b41146103e9578063a22cb465146103fe578063a6f0e5771461041e578063a8c243301461043e57600080fd5b8063715018a6146103855780638da5cb5b1461039a5780639507d39a146103b857600080fd5b806339eac6ab1161015957806355f804b31161013357806355f804b3146103045780635b6f29b7146103245780636352211e1461033757806370a082311461035757600080fd5b806339eac6ab1461029257806342842e0e146102b25780635333f08f146102d257600080fd5b806301ffc9a7146101a157806306fdde03146101d6578063081812fc146101f8578063095ea7b314610230578063232f8ecc1461025257806323b872dd14610272575b600080fd5b3480156101ad57600080fd5b506101c16101bc366004612339565b61058b565b60405190151581526020015b60405180910390f35b3480156101e257600080fd5b506101eb6105dd565b6040516101cd919061262d565b34801561020457600080fd5b5061021861021336600461250b565b61066f565b6040516001600160a01b0390911681526020016101cd565b34801561023c57600080fd5b5061025061024b36600461230f565b6106fc565b005b34801561025e57600080fd5b5061025061026d3660046124a8565b610812565b34801561027e57600080fd5b5061025061028d36600461221b565b61085b565b34801561029e57600080fd5b506102186102ad3660046123c3565b61088c565b3480156102be57600080fd5b506102506102cd36600461221b565b6108a4565b3480156102de57600080fd5b506102f26102ed36600461256b565b6108bf565b60405160ff90911681526020016101cd565b34801561031057600080fd5b5061025061031f366004612373565b610a15565b610250610332366004612406565b610a4b565b34801561034357600080fd5b5061021861035236600461250b565b610ce2565b34801561036357600080fd5b506103776103723660046121cd565b610d59565b6040519081526020016101cd565b34801561039157600080fd5b50610250610de0565b3480156103a657600080fd5b506000546001600160a01b0316610218565b3480156103c457600080fd5b506103d86103d336600461250b565b610e54565b6040516101cd959493929190612742565b3480156103f557600080fd5b506101eb610f9a565b34801561040a57600080fd5b506102506104193660046122d3565b610fa9565b34801561042a57600080fd5b506101c16104393660046123a8565b61106e565b34801561044a57600080fd5b506101eb6104593660046123c3565b61110b565b34801561046a57600080fd5b50610250610479366004612524565b611246565b34801561048a57600080fd5b50610250610499366004612257565b611309565b3480156104aa57600080fd5b506101eb6104b936600461250b565b61133b565b3480156104ca57600080fd5b506101eb6104d936600461250b565b611413565b3480156104ea57600080fd5b506104fe6104f936600461250b565b611534565b6040805161ffff909416845260ff92831660208501529116908201526060016101cd565b34801561052e57600080fd5b506101c161053d3660046121e8565b6001600160a01b03918216600090815260066020908152604080832093909416825291909152205460ff1690565b34801561057757600080fd5b506102506105863660046121cd565b611703565b60006001600160e01b031982166380ac58cd60e01b14806105bc57506001600160e01b03198216635b5e139f60e01b145b806105d757506301ffc9a760e01b6001600160e01b03198316145b92915050565b6060600180546105ec9061294c565b80601f01602080910402602001604051908101604052809291908181526020018280546106189061294c565b80156106655780601f1061063a57610100808354040283529160200191610665565b820191906000526020600020905b81548152906001019060200180831161064857829003601f168201915b5050505050905090565b600061067a826117f3565b6106e05760405162461bcd60e51b815260206004820152602c60248201527f4552433732313a20617070726f76656420717565727920666f72206e6f6e657860448201526b34b9ba32b73a103a37b5b2b760a11b60648201526084015b60405180910390fd5b506000908152600560205260409020546001600160a01b031690565b600061070782610ce2565b9050806001600160a01b0316836001600160a01b031614156107755760405162461bcd60e51b815260206004820152602160248201527f4552433732313a20617070726f76616c20746f2063757272656e74206f776e656044820152603960f91b60648201526084016106d7565b336001600160a01b03821614806107915750610791813361053d565b6108035760405162461bcd60e51b815260206004820152603860248201527f4552433732313a20617070726f76652063616c6c6572206973206e6f74206f7760448201527f6e6572206e6f7220617070726f76656420666f7220616c6c000000000000000060648201526084016106d7565b61080d8383611810565b505050565b61082561082085858561187e565b6117f3565b6108415760405162461bcd60e51b81526004016106d790612718565b61085561084f85858561187e565b82611246565b50505050565b6108653382611906565b6108815760405162461bcd60e51b81526004016106d7906126c7565b61080d8383836119ec565b600061089c61035285858561187e565b949350505050565b61080d83838360405180602001604052806000815250611309565b60008260ff166001111580156108d95750600c8360ff1611155b6109255760405162461bcd60e51b815260206004820152601e60248201527f6d6f6e7468206d757374206265206265747765656e203120616e64203132000060448201526064016106d7565b8161ffff166001111561097a5760405162461bcd60e51b815260206004820152601e60248201527f79656172206d75737420626520626967676572206f7220657175616c2031000060448201526064016106d7565b8260ff166001148061098f57508260ff166003145b8061099d57508260ff166005145b806109ab57508260ff166007145b806109b957508260ff166008145b806109c757508260ff16600a145b806109d557508260ff16600c145b156109e25750601f6105d7565b8260ff1660021415610a0c576109f78261106e565b610a0257601c610a05565b601d5b90506105d7565b50601e92915050565b6000546001600160a01b03163314610a3f5760405162461bcd60e51b81526004016106d790612692565b610a4881610a15565b50565b3467016345785d8a000014610aa25760405162461bcd60e51b815260206004820152601f60248201527f636c61696d696e672061206461746520636f7374732031302066696e6e65790060448201526064016106d7565b6000806000610ab042611534565b9250925092508261ffff168861ffff161180610ae357508261ffff168861ffff16148015610ae357508160ff168760ff16115b80610b1657508261ffff168861ffff16148015610b0557508160ff168760ff16145b8015610b1657508060ff168660ff16115b15610b735760405162461bcd60e51b815260206004820152602760248201527f6120646174652066726f6d20746865206675747572652063616e27742062652060448201526618db185a5b595960ca1b60648201526084016106d7565b600080620f4240610bbc8b8b8b8b8b8080601f016020809104026020016040519081016040528093929190818152602001838380828437600092019190915250611b8c92505050565b610bc691906129c3565b90506103e8811015610bdb5760079150610c56565b611770811015610bee5760069150610c56565b613e80811015610c015760059150610c56565b620101d0811015610c155760049150610c56565b62028870811015610c295760039150610c56565b620595b0811015610c3d5760029150610c56565b620a2990811015610c515760019150610c56565b600091505b610c998a8a8a858b8b8080601f016020809104026020016040519081016040528093929190818152602001838380828437600092019190915250611bca92505050565b600080546040516001600160a01b03909116919067016345785d8a00009082818181858883f19350505050158015610cd5573d6000803e3d6000fd5b5050505050505050505050565b6000818152600360205260408120546001600160a01b0316806105d75760405162461bcd60e51b815260206004820152602960248201527f4552433732313a206f776e657220717565727920666f72206e6f6e657869737460448201526832b73a103a37b5b2b760b91b60648201526084016106d7565b60006001600160a01b038216610dc45760405162461bcd60e51b815260206004820152602a60248201527f4552433732313a2062616c616e636520717565727920666f7220746865207a65604482015269726f206164647265737360b01b60648201526084016106d7565b506001600160a01b031660009081526004602052604090205490565b6000546001600160a01b03163314610e0a5760405162461bcd60e51b81526004016106d790612692565b600080546040516001600160a01b03909116907f8be0079c531659141344cd1fd0a4f28419497f9722a3daafe3b4186f6b6457e0908390a3600080546001600160a01b0319169055565b6000806000806060610e65866117f3565b610e815760405162461bcd60e51b81526004016106d790612718565b6000868152600760209081526040808320815160a081018352815461ffff8116825260ff620100008204811695830195909552630100000081048516938201939093526401000000009092049092166060820152600182018054919291608084019190610eed9061294c565b80601f0160208091040260200160405190810160405280929190818152602001828054610f199061294c565b8015610f665780601f10610f3b57610100808354040283529160200191610f66565b820191906000526020600020905b815481529060010190602001808311610f4957829003601f168201915b5050509190925250508151602083015160408401516060850151608090950151929c919b5099509297509550909350505050565b6060600280546105ec9061294c565b6001600160a01b0382163314156110025760405162461bcd60e51b815260206004820152601960248201527f4552433732313a20617070726f766520746f2063616c6c65720000000000000060448201526064016106d7565b3360008181526006602090815260408083206001600160a01b03871680855290835292819020805460ff191686151590811790915590519081529192917f17307eab39ab6107e8899845ad3d59bd9653f200f220920489ca2b5937696c31910160405180910390a35050565b60008161ffff16600111156110c55760405162461bcd60e51b815260206004820152601e60248201527f79656172206d75737420626520626967676572206f7220657175616c2031000060448201526064016106d7565b6110d06004836129a2565b61ffff161580156110ed57506110e76064836129a2565b61ffff16155b80156105d75750611100610190836129a2565b61ffff161592915050565b606061111b61082085858561187e565b6111375760405162461bcd60e51b81526004016106d790612718565b60006007600061114887878761187e565b81526020808201929092526040908101600020815160a081018352815461ffff8116825260ff6201000082048116958301959095526301000000810485169382019390935264010000000090920490921660608201526001820180549192916080840191906111b69061294c565b80601f01602080910402602001604051908101604052809291908181526020018280546111e29061294c565b801561122f5780601f106112045761010080835404028352916020019161122f565b820191906000526020600020905b81548152906001019060200180831161121257829003601f168201915b505050919092525050506080015195945050505050565b61124f826117f3565b61126b5760405162461bcd60e51b81526004016106d790612718565b3361127583610ce2565b6001600160a01b0316146112e45760405162461bcd60e51b815260206004820152603060248201527f6f6e6c7920746865206f776e6572206f66207468697320646174652063616e2060448201526f6368616e676520697473207469746c6560801b60648201526084016106d7565b6000828152600760209081526040909120825161080d9260019092019184019061205f565b6113133383611906565b61132f5760405162461bcd60e51b81526004016106d7906126c7565b61085584848484611ca0565b6060611346826117f3565b6113aa5760405162461bcd60e51b815260206004820152602f60248201527f4552433732314d657461646174613a2055524920717565727920666f72206e6f60448201526e3732bc34b9ba32b73a103a37b5b2b760891b60648201526084016106d7565b60006113c160408051602081019091526000815290565b905060008151116113e1576040518060200160405280600081525061140c565b806113eb84611cd3565b6040516020016113fc9291906125c1565b6040516020818303038152906040525b9392505050565b606061141e826117f3565b61143a5760405162461bcd60e51b81526004016106d790612718565b6000828152600760209081526040808320815160a081018352815461ffff8116825260ff6201000082048116958301959095526301000000810485169382019390935264010000000090920490921660608201526001820180549192916080840191906114a69061294c565b80601f01602080910402602001604051908101604052809291908181526020018280546114d29061294c565b801561151f5780601f106114f45761010080835404028352916020019161151f565b820191906000526020600020905b81548152906001019060200180831161150257829003601f168201915b50505091909252505050608001519392505050565b60008080806115466201518086612812565b61155390620afa6c6127cc565b9050600062023ab160008312156115765761157162023ab0846128ca565b611578565b825b61158291906127e4565b905060006115938262023ab1612826565b61159d90846128ca565b9050600061016d6115b162023ab084612812565b6115bd618eac85612812565b6115c96105b486612812565b6115d39086612909565b6115dd91906127cc565b6115e79190612909565b6115f19190612812565b90506000611600606483612812565b61160b600484612812565b6116178461016d6128ab565b61162191906127cc565b61162b9190612909565b6116359084612909565b9050600060996116468360056128ab565b6116519060026127cc565b61165b9190612812565b9050600561166a8260996128ab565b6116759060026127cc565b61167f9190612812565b6116899083612909565b6116949060016127cc565b9650600a81106116ae576116a9600982612909565b6116b9565b6116b98160036127cc565b975060028860ff1611156116ce5760006116d1565b60015b60ff166116e0866101906128ab565b6116ea90856127cc565b6116f491906127cc565b98505050505050509193909250565b6000546001600160a01b0316331461172d5760405162461bcd60e51b81526004016106d790612692565b6001600160a01b0381166117925760405162461bcd60e51b815260206004820152602660248201527f4f776e61626c653a206e6577206f776e657220697320746865207a65726f206160448201526564647265737360d01b60648201526084016106d7565b600080546040516001600160a01b03808516939216917f8be0079c531659141344cd1fd0a4f28419497f9722a3daafe3b4186f6b6457e091a3600080546001600160a01b0319166001600160a01b0392909216919091179055565b3b151590565b6000908152600360205260409020546001600160a01b0316151590565b600081815260056020526040902080546001600160a01b0319166001600160a01b038416908117909155819061184582610ce2565b6001600160a01b03167f8c5be1e5ebec7d5bd14f71427d1e84f3dd0314c0f7b2291e5b200ac8c7c3b92560405160405180910390a45050565b60008160ff166001111580156118a3575061189983856108bf565b60ff168260ff1611155b6118ac57600080fd5b60018260ff1660018560ff166118c29190612909565b6118cd90601f6128ab565b6118dc600161ffff8916612909565b6118e8906101746128ab565b6118f291906127cc565b6118fc91906127cc565b61089c9190612909565b6000611911826117f3565b6119725760405162461bcd60e51b815260206004820152602c60248201527f4552433732313a206f70657261746f7220717565727920666f72206e6f6e657860448201526b34b9ba32b73a103a37b5b2b760a11b60648201526084016106d7565b600061197d83610ce2565b9050806001600160a01b0316846001600160a01b031614806119b85750836001600160a01b03166119ad8461066f565b6001600160a01b0316145b8061089c57506001600160a01b0380821660009081526006602090815260408083209388168352929052205460ff1661089c565b826001600160a01b03166119ff82610ce2565b6001600160a01b031614611a675760405162461bcd60e51b815260206004820152602960248201527f4552433732313a207472616e73666572206f6620746f6b656e2074686174206960448201526839903737ba1037bbb760b91b60648201526084016106d7565b6001600160a01b038216611ac95760405162461bcd60e51b8152602060048201526024808201527f4552433732313a207472616e7366657220746f20746865207a65726f206164646044820152637265737360e01b60648201526084016106d7565b611ad4600082611810565b6001600160a01b0383166000908152600460205260408120805460019290611afd908490612909565b90915550506001600160a01b0382166000908152600460205260408120805460019290611b2b9084906127cc565b909155505060008181526003602052604080822080546001600160a01b0319166001600160a01b0386811691821790925591518493918716917fddf252ad1be2c89b69c2b068fc378daa952ba7f163c4a11628f55a4df523b3ef91a4505050565b6000424486868686604051602001611ba996959493929190612785565b60408051601f19818403018152919052805160209091012095945050505050565b6000611bd786868661187e565b6040805160a08101825261ffff808a16825260ff808a1660208085019182528a83168587019081528a841660608701908152608087018b815260008a815260078552989098208751815495519351925187166401000000000264ff00000000199388166301000000029390931664ffff0000001994909716620100000262ffffff199096169716969096179390931716929092171782559251805194955091939092611c8a92600185019291019061205f565b50905050611c983382611dd1565b505050505050565b611cab8484846119ec565b611cb784848484611def565b6108555760405162461bcd60e51b81526004016106d790612640565b606081611cf75750506040805180820190915260018152600360fc1b602082015290565b8160005b8115611d215780611d0b81612987565b9150611d1a9050600a83612812565b9150611cfb565b60008167ffffffffffffffff811115611d3c57611d3c612a19565b6040519080825280601f01601f191660200182016040528015611d66576020820181803683370190505b5090505b841561089c57611d7b600183612909565b9150611d88600a866129c3565b611d939060306127cc565b60f81b818381518110611da857611da8612a03565b60200101906001600160f81b031916908160001a905350611dca600a86612812565b9450611d6a565b611deb828260405180602001604052806000815250611ef9565b5050565b60006001600160a01b0384163b15611ef157604051630a85bd0160e11b81526001600160a01b0385169063150b7a0290611e339033908990889088906004016125f0565b602060405180830381600087803b158015611e4d57600080fd5b505af1925050508015611e7d575060408051601f3d908101601f19168201909252611e7a91810190612356565b60015b611ed7573d808015611eab576040519150601f19603f3d011682016040523d82523d6000602084013e611eb0565b606091505b508051611ecf5760405162461bcd60e51b81526004016106d790612640565b805181602001fd5b6001600160e01b031916630a85bd0160e11b14905061089c565b50600161089c565b611f038383611f2c565b611f106000848484611def565b61080d5760405162461bcd60e51b81526004016106d790612640565b6001600160a01b038216611f825760405162461bcd60e51b815260206004820181905260248201527f4552433732313a206d696e7420746f20746865207a65726f206164647265737360448201526064016106d7565b611f8b816117f3565b15611fd85760405162461bcd60e51b815260206004820152601c60248201527f4552433732313a20746f6b656e20616c7265616479206d696e7465640000000060448201526064016106d7565b6001600160a01b03821660009081526004602052604081208054600192906120019084906127cc565b909155505060008181526003602052604080822080546001600160a01b0319166001600160a01b03861690811790915590518392907fddf252ad1be2c89b69c2b068fc378daa952ba7f163c4a11628f55a4df523b3ef908290a45050565b82805461206b9061294c565b90600052602060002090601f01602090048101928261208d57600085556120d3565b82601f106120a657805160ff19168380011785556120d3565b828001600101855582156120d3579182015b828111156120d35782518255916020019190600101906120b8565b506120df9291506120e3565b5090565b5b808211156120df57600081556001016120e4565b600067ffffffffffffffff8084111561211357612113612a19565b604051601f8501601f19908116603f0116810190828211818310171561213b5761213b612a19565b8160405280935085815286868601111561215457600080fd5b858560208301376000602087830101525050509392505050565b80356001600160a01b038116811461218557600080fd5b919050565b600082601f83011261219b57600080fd5b61140c838335602085016120f8565b803561ffff8116811461218557600080fd5b803560ff8116811461218557600080fd5b6000602082840312156121df57600080fd5b61140c8261216e565b600080604083850312156121fb57600080fd5b6122048361216e565b91506122126020840161216e565b90509250929050565b60008060006060848603121561223057600080fd5b6122398461216e565b92506122476020850161216e565b9150604084013590509250925092565b6000806000806080858703121561226d57600080fd5b6122768561216e565b93506122846020860161216e565b925060408501359150606085013567ffffffffffffffff8111156122a757600080fd5b8501601f810187136122b857600080fd5b6122c7878235602084016120f8565b91505092959194509250565b600080604083850312156122e657600080fd5b6122ef8361216e565b91506020830135801515811461230457600080fd5b809150509250929050565b6000806040838503121561232257600080fd5b61232b8361216e565b946020939093013593505050565b60006020828403121561234b57600080fd5b813561140c81612a2f565b60006020828403121561236857600080fd5b815161140c81612a2f565b60006020828403121561238557600080fd5b813567ffffffffffffffff81111561239c57600080fd5b61089c8482850161218a565b6000602082840312156123ba57600080fd5b61140c826121aa565b6000806000606084860312156123d857600080fd5b6123e1846121aa565b92506123ef602085016121bc565b91506123fd604085016121bc565b90509250925092565b60008060008060006080868803121561241e57600080fd5b612427866121aa565b9450612435602087016121bc565b9350612443604087016121bc565b9250606086013567ffffffffffffffff8082111561246057600080fd5b818801915088601f83011261247457600080fd5b81358181111561248357600080fd5b89602082850101111561249557600080fd5b9699959850939650602001949392505050565b600080600080608085870312156124be57600080fd5b6124c7856121aa565b93506124d5602086016121bc565b92506124e3604086016121bc565b9150606085013567ffffffffffffffff8111156124ff57600080fd5b6122c78782880161218a565b60006020828403121561251d57600080fd5b5035919050565b6000806040838503121561253757600080fd5b82359150602083013567ffffffffffffffff81111561255557600080fd5b6125618582860161218a565b9150509250929050565b6000806040838503121561257e57600080fd5b612587836121bc565b9150612212602084016121aa565b600081518084526125ad816020860160208601612920565b601f01601f19169290920160200192915050565b600083516125d3818460208801612920565b8351908301906125e7818360208801612920565b01949350505050565b6001600160a01b038581168252841660208201526040810183905260806060820181905260009061262390830184612595565b9695505050505050565b60208152600061140c6020830184612595565b60208082526032908201527f4552433732313a207472616e7366657220746f206e6f6e20455243373231526560408201527131b2b4bb32b91034b6b83632b6b2b73a32b960711b606082015260800190565b6020808252818101527f4f776e61626c653a2063616c6c6572206973206e6f7420746865206f776e6572604082015260600190565b60208082526031908201527f4552433732313a207472616e736665722063616c6c6572206973206e6f74206f6040820152701ddb995c881b9bdc88185c1c1c9bdd9959607a1b606082015260800190565b60208082526010908201526f1d1bdad95b881b9bdd081b5a5b9d195960821b604082015260600190565b61ffff8616815260ff8516602082015260ff8416604082015260ff8316606082015260a06080820152600061277a60a0830184612595565b979650505050505050565b86815285602082015261ffff8516604082015260ff8416606082015260ff8316608082015260c060a082015260006127c060c0830184612595565b98975050505050505050565b600082198211156127df576127df6129d7565b500190565b6000826127f3576127f36129ed565b600160ff1b82146000198414161561280d5761280d6129d7565b500590565b600082612821576128216129ed565b500490565b60006001600160ff1b038184138284138082168684048611161561284c5761284c6129d7565b600160ff1b600087128281168783058912161561286b5761286b6129d7565b60008712925087820587128484161615612887576128876129d7565b8785058712818416161561289d5761289d6129d7565b505050929093029392505050565b60008160001904831182151516156128c5576128c56129d7565b500290565b60008083128015600160ff1b8501841216156128e8576128e86129d7565b6001600160ff1b0384018313811615612903576129036129d7565b50500390565b60008282101561291b5761291b6129d7565b500390565b60005b8381101561293b578181015183820152602001612923565b838111156108555750506000910152565b600181811c9082168061296057607f821691505b6020821081141561298157634e487b7160e01b600052602260045260246000fd5b50919050565b600060001982141561299b5761299b6129d7565b5060010190565b600061ffff808416806129b7576129b76129ed565b92169190910692915050565b6000826129d2576129d26129ed565b500690565b634e487b7160e01b600052601160045260246000fd5b634e487b7160e01b600052601260045260246000fd5b634e487b7160e01b600052603260045260246000fd5b634e487b7160e01b600052604160045260246000fd5b6001600160e01b031981168114610a4857600080fdfea264697066735822122039252a3e4d35ad89252df8f0c84c4aeea68265a82d5aee27ee51a7f43b82ed5464736f6c634300080600334552433732313a207472616e7366657220746f206e6f6e20455243373231526552656d656d6265722c2072656d656d6265722c2074686520357468206f66204e6f76656d6265722e417274206973206e657665722066696e69736865642c206f6e6c79206162616e646f6e65642e",
  "immutableReferences": {},
  "source": "// SPDX-License-Identifier: MIT\r\npragma solidity >=0.4.22 <0.9.0;\r\n\r\nimport \"@openzeppelin/contracts/access/Ownable.sol\";\r\nimport \"@openzeppelin/contracts/token/ERC721/ERC721.sol\";\r\n\r\ncontract Date is Ownable, ERC721 {\r\n\r\n    struct Metadata {\r\n        uint16 year;\r\n        uint8 month;\r\n        uint8 day;\r\n        uint8 color;\r\n        string title;\r\n    }\r\n\r\n    mapping(uint256 => Metadata) id_to_date;\r\n\r\n    constructor() public ERC721(\"Date\", \"DATE\") {\r\n        setBaseURI(\"https://date.kie.codes/token/\");\r\n\r\n        mint(1, 1, 1, 4, \"ORIGIN\");\r\n        (uint16 now_year, uint8 now_month, uint8 now_day) = timestampToDate(block.timestamp);\r\n        mint(now_year, now_month, now_day, 4, \"Date Token Start\");\r\n        mint(2015, 7, 30, 6, \"ETH GENESIS\");\r\n        mint(1452, 4, 15, 5, \"Art is never finished, only abandoned.\");\r\n        mint(1605, 11, 5, 1, \"Remember, remember, the 5th of November.\");\r\n        mint(1564, 4, 23, 2, \"To be, or not to be\");\r\n        mint(1969, 7, 20, 3, \"One small step for man\");\r\n        mint(1986, 6, 12, 0, \"CBD\");\r\n        mint(1971, 6, 28, 7, \"Elon's Birthday\");\r\n    }\r\n\r\n    function setBaseURI(string memory baseURI) public onlyOwner {\r\n        setBaseURI(baseURI);\r\n    }\r\n\r\n    function mint(uint16 year, uint8 month, uint8 day, uint8 color, string memory title) internal {\r\n        uint256 tokenId = id(year, month, day);\r\n        \r\n        id_to_date[tokenId] = Metadata(year, month, day, color, title);\r\n        _safeMint(msg.sender, tokenId);\r\n    }\r\n\r\n    function claim(uint16 year, uint8 month, uint8 day, string calldata title) external payable {\r\n        require(msg.value == 0.1 ether, \"claiming a date costs 10 finney\");\r\n\r\n        (uint16 now_year, uint8 now_month, uint8 now_day) = timestampToDate(block.timestamp);\r\n        if ((year > now_year) || \r\n            (year == now_year && month > now_month) || \r\n            (year == now_year && month == now_month && day > now_day)) {\r\n            revert(\"a date from the future can't be claimed\");\r\n        }\r\n\r\n        uint8 color;\r\n        uint256 r = pseudoRNG(year, month, day, title) % 1000000;\r\n        if (r < 1000) {\r\n            color = 7;\r\n        } else if (r < 6000) {\r\n            color = 6;\r\n        } else if (r < 16000) {\r\n            color = 5;\r\n        } else if (r < 66000) {\r\n            color = 4;\r\n        } else if (r < 166000) {\r\n            color = 3;\r\n        } else if (r < 366000) {\r\n            color = 2;\r\n        } else if (r < 666000) {\r\n            color = 1;\r\n        } else {\r\n            color = 0;\r\n        }\r\n\r\n        mint(year, month, day, color, title);\r\n        payable(owner()).transfer(0.1 ether);\r\n    }\r\n\r\n    function ownerOf(uint16 year, uint8 month, uint8 day) public view returns(address) {\r\n        return ownerOf(id(year, month, day));\r\n    }\r\n\r\n    function id(uint16 year, uint8 month, uint8 day) pure internal returns(uint256) {\r\n        require(1 <= day && day <= numDaysInMonth(month, year));\r\n        return (uint256(year)-1)*372 + (uint256(month)-1)*31 + uint256(day)-1;\r\n    }\r\n\r\n    function get(uint256 tokenId) external view returns (uint16 year, uint8 month, uint8 day, uint8 color, string memory title) {\r\n        require(_exists(tokenId), \"token not minted\");\r\n        Metadata memory date = id_to_date[tokenId];\r\n        year = date.year;\r\n        month = date.month;\r\n        day = date.day;\r\n        color = date.color;\r\n        title = date.title;\r\n    }\r\n\r\n    function titleOf(uint256 tokenId) external view returns (string memory) {\r\n        require(_exists(tokenId), \"token not minted\");\r\n        Metadata memory date = id_to_date[tokenId];\r\n        return date.title;\r\n    }\r\n\r\n    function titleOf(uint16 year, uint8 month, uint8 day) external view returns (string memory) {\r\n        require(_exists(id(year, month, day)), \"token not minted\");\r\n        Metadata memory date = id_to_date[id(year, month, day)];\r\n        return date.title;\r\n    }\r\n\r\n    function changeTitleOf(uint16 year, uint8 month, uint8 day, string memory title) external {\r\n        require(_exists(id(year, month, day)), \"token not minted\");\r\n        changeTitleOf(id(year, month, day), title);\r\n    }\r\n\r\n    function changeTitleOf(uint256 tokenId, string memory title) public {\r\n        require(_exists(tokenId), \"token not minted\");\r\n        require(ownerOf(tokenId) == msg.sender, \"only the owner of this date can change its title\");\r\n        id_to_date[tokenId].title = title;\r\n    }\r\n\r\n    function isLeapYear(uint16 year) public pure returns (bool) {\r\n        require(1 <= year, \"year must be bigger or equal 1\");\r\n        return (year % 4 == 0) \r\n            && (year % 100 == 0)\r\n            && (year % 400 == 0);\r\n    }\r\n\r\n    function numDaysInMonth(uint8 month, uint16 year) public pure returns (uint8) {\r\n        require(1 <= month && month <= 12, \"month must be between 1 and 12\");\r\n        require(1 <= year, \"year must be bigger or equal 1\");\r\n\r\n        if (month == 1 || month == 3 || month == 5 || month == 7 || month == 8 || month == 10 || month == 12) {\r\n            return 31;\r\n        }\r\n        else if (month == 2) {\r\n            return isLeapYear(year) ? 29 : 28;\r\n        }\r\n        else {\r\n            return 30;\r\n        }\r\n    }\r\n\r\n    function timestampToDate(uint timestamp) public pure returns (uint16 year, uint8 month, uint8 day) {\r\n        int z = int(timestamp / 86400 + 719468);\r\n        int era = (z >= 0 ? z : z - 146096) / 146097;\r\n        uint doe = uint(z - era * 146097);\r\n        uint yoe = (doe - doe/1460 + doe/36524 - doe/146096) / 365;\r\n        uint doy = doe - (365*yoe + yoe/4 - yoe/100);\r\n        uint mp = (5*doy + 2)/153;\r\n\r\n        day = uint8(doy - (153*mp+2)/5 + 1);\r\n        month = mp < 10 ? uint8(mp + 3) : uint8(mp - 9);\r\n        year = uint16(uint(yoe) + uint(era) * 400 + uint(month <= 2 ? 1 : 0));\r\n    }\r\n\r\n    function pseudoRNG(uint16 year, uint8 month, uint8 day, string memory title) internal view returns (uint256) {\r\n        return uint256(keccak256(abi.encode(block.timestamp, block.difficulty, year, month, day, title)));\r\n    }\r\n}",
  "sourcePath": "D:/File/Code/js/wallet/contracts/date.sol",
  "compiler": {
    "name": "solc",
    "version": "0.8.6+commit.11564f7e.Emscripten.clang"
  },
  "schemaVersion": "3.4.1",
  "updatedAt": "2021-06-29T16:52:24.990Z",
  "devdoc": {
    "kind": "dev",
    "methods": {
      "approve(address,uint256)": {
        "details": "See {IERC721-approve}."
      },
      "balanceOf(address)": {
        "details": "See {IERC721-balanceOf}."
      },
      "getApproved(uint256)": {
        "details": "See {IERC721-getApproved}."
      },
      "isApprovedForAll(address,address)": {
        "details": "See {IERC721-isApprovedForAll}."
      },
      "name()": {
        "details": "See {IERC721Metadata-name}."
      },
      "owner()": {
        "details": "Returns the address of the current owner."
      },
      "ownerOf(uint256)": {
        "details": "See {IERC721-ownerOf}."
      },
      "renounceOwnership()": {
        "details": "Leaves the contract without owner. It will not be possible to call `onlyOwner` functions anymore. Can only be called by the current owner. NOTE: Renouncing ownership will leave the contract without an owner, thereby removing any functionality that is only available to the owner."
      },
      "safeTransferFrom(address,address,uint256)": {
        "details": "See {IERC721-safeTransferFrom}."
      },
      "safeTransferFrom(address,address,uint256,bytes)": {
        "details": "See {IERC721-safeTransferFrom}."
      },
      "setApprovalForAll(address,bool)": {
        "details": "See {IERC721-setApprovalForAll}."
      },
      "supportsInterface(bytes4)": {
        "details": "See {IERC165-supportsInterface}."
      },
      "symbol()": {
        "details": "See {IERC721Metadata-symbol}."
      },
      "tokenURI(uint256)": {
        "details": "See {IERC721Metadata-tokenURI}."
      },
      "transferFrom(address,address,uint256)": {
        "details": "See {IERC721-transferFrom}."
      },
      "transferOwnership(address)": {
        "details": "Transfers ownership of the contract to a new account (`newOwner`). Can only be called by the current owner."
      }
    },
    "version": 1
  },
  "userdoc": {
    "kind": "user",
    "methods": {},
    "version": 1
  }
}